:020000040800F2
:10000000180D0020B9010008BD010008BF0100085B
:10001000C1010008C3010008C5010008000000007C
:10002000000000000000000000000000C701000800
:10003000C901000800000000CB010008CD01000844
:10004000CF010008CF010008CF010008CF01000850
:10005000CF010008CF010008B1100008CF0100084F
:10006000B9100008C1100008C9100008CF0100082D
:10007000CF010008CF010008CF010008CF01000820
:10008000CF010008CF010008CF010008CF01000810
:10009000CF010008CF010008CF010008CF01000800
:1000A000CF010008CF010008CF010008CF010008F0
:1000B000CF0100083F070008CF010008CF0100086A
:1000C000CF010008CF010008CF010008CF010008D0
:1000D000CF010008CF010008CF010008CF010008C0
:1000E000CF010008CF010008CF01000800F002F89E
:1000F00000F04CF80AA090E8000C82448344AAF176
:100100000107DA4501D100F041F8AFF2090EBAE873
:100110000F0013F0010F18BFFB1A43F0010318473B
:10012000E4180000041900000A4410F8014B14F010
:100130000F0508BF10F8015B240908BF10F8014B38
:100140006D1E05D010F8013B6D1E01F8013BF9D181
:10015000641E03D0641E01F8015BFBD19142E4D31D
:10016000704700000023002400250026103A28BF15
:1001700078C1FBD8520728BF30C148BF0B60704719
:100180001FB501F0AEFB1FBD10B510BD00F0BAFFEA
:100190001146FFF7F5FF00F0C1F900F0D8FF03B4F6
:1001A000FFF7F2FF03BC00F0BFFC000030BF72B6E7
:1001B00062B680F30888704708480047FEE7FEE70C
:1001C000FEE7FEE7FEE7FEE7FEE7FEE7FEE7FEE707
:1001D00003480449044A054B70470000ED0000083D
:1001E00018040020180D0020180500201805002014
:1001F0002DE9F0478EB00026B0460027AA223146EE
:10020000761C01A842543146761C425402223146E3
:10021000761C425400223146761C4254FE49B1F904
:100220000000C11700EBD1414913C1F30723324647
:10023000761C01A98B54F849B1F90000C11700EBF5
:10024000D141C1F347333246761C01A98B54F249A0
:10025000B1F90200C11700EBD1414913C1F30723E3
:100260003246761C01A98B54EB49B1F90200C11743
:1002700000EBD141C1F347333146721CD6B201AA1B
:100280005354E549B1F90400C11700EBD1414913BA
:10029000C1F307233146721CD6B201AA5354DE497A
:1002A000B1F90400C11700EBD141C1F34733314626
:1002B000721CD6B201AA5354D849B1F9000000F01B
:1002C00080FF0446D64AD74B00F092FF814600F0EB
:1002D00049FFC0F307223046711CCEB201A90A546F
:1002E000CE49B1F9000000F06CFF8146CC4ACD4BFD
:1002F00000F07EFF044600F035FFC2B23046711CAC
:10030000CEB201A90A54C549B1F9020000F059FF63
:100310000446C34AC34B00F06BFF814600F022FF46
:10032000C0F307223046711CCEB201A90A54BB4962
:10033000B1F9020000F045FF0446B94AB94B00F09C
:1003400057FF814600F00EFFC2B23046711CCEB29C
:1003500001A90A54B149B1F9040000F032FF044682
:10036000AF4AB04B00F044FF814600F0FBFEC0F303
:1003700007223046711CCEB201A90A54A749B1F92F
:10038000040000F01EFF0446A54AA64B00F030FF13
:10039000814600F0E7FEC2B23046711CCEB201A920
:1003A0000A5400223046711CCEB201A90A543046CC
:1003B000711CCEB201A90A543146701CC6B201A804
:1003C00042543046711CCEB201A90A543046711C09
:1003D000CEB201A90A543046711CCEB201A90A540A
:1003E000301FC0B28DF8070000BF06E001A8C05D55
:1003F000404400F0FF08781CC7B2B742F6DB304635
:10040000711CCEB201A901F80080002705E001A906
:10041000C85D00F0EFFB781CC7B2B742F7DB0EB047
:10042000BDE8F0872DE9F04F8FB081460E461746A4
:10043000DDF860A000250024A046AA222146641C05
:1004400001A842542146641C425401222146641CE6
:10045000425400222146641C42547349304601F044
:1004600079F9834601F0F2F80E909DF83920214683
:10047000641C01A842549DF838202146641C425453
:100480006949484601F066F9834601F0DFF84042C9
:100490000E909DF839202146641C01A842549DF815
:1004A00038202046611CCCB201A90A545E49384666
:1004B00001F050F9834601F0C9F80E909DF83920FB
:1004C0002146601CC4B201A842549DF83820214640
:1004D000601CC4B201A84254201FC0B28DF80700AE
:1004E00000BF06E001A8405D404400F0FF08681C22
:1004F000C5B2A542F6DB2046611CCCB201A901F8C9
:100500000080002505E001A9485D00F073FB681C30
:10051000C5B2A542F7DB0FB0BDE8F08F08B50920E2
:1005200000F0A6FA482000F03BF94FF4E1314820F2
:1005300000F008FB00F098FB00BF00F00CFC002866
:10054000FBD100F0A4FC052000F05BF9052000F0D1
:1005500039FC36490870372000F053F917E01E20A7
:1005600000F04FF9324800F070FC3249087008463C
:10057000007860B90020034600902F4802682F4899
:1005800001682F480068FFF74DFFFFF731FEE6E7EF
:1005900070B52C490868002101F0A8F81CD2012090
:1005A000294908702748006880F0004527492846F7
:1005B00000F08AFF044601F065F82349487021499C
:1005C000086801F043F84042FF2190FBF1F201FB83
:1005D00012001D49887017E000201B490870194956
:1005E00008681A4900F070FF044601F04BF81649FC
:1005F00048701449086801F029F8FF2190FBF1F2D6
:1006000001FB12001049887000211148006801F0B8
:100610006DF83BD201201DE02C00002038000020A6
:1006200008AC1C5A643BAF3F0000C8420C000020DD
:10063000700100200A0000206400002060000020FB
:100640005C000020900100205001002000007F434A
:10065000680000204749C8704748006880F000459E
:100660004649284600F030FF044601F00BF84149A6
:1006700008714148006800F0E9FF4042FF2190FB0B
:10068000F1F201FB12003B49487117E000203949A3
:10069000C8703A493848006800F016FF044600F078
:1006A000F1FF344908713448006800F0CFFFFF21A2
:1006B00090FBF1F201FB12002E49487130480068AE
:1006C000FF2190FBF1F02B4988712D480068FF2134
:1006D00090FBF1F201FB12002649C871294800681D
:1006E000FF2190FBF1F02349087226480068FF21A2
:1006F00090FBF1F201FB12001E494872224800688B
:10070000FF2190FBF1F01B4988721F480068FF2110
:1007100090FBF1F201FB12001649C8721B480068F9
:10072000FF2190FBF1F01349087318480068FF217E
:1007300090FBF1F201FB12000E49487370BD08B541
:100740001348008810F0010F0CD0002003460090E1
:10075000104802681048016810480068FFF762FE00
:10076000FFF746FD0A48008820F00100084908808C
:1007700008BD0000500100206800002000007F43F9
:100780002001002024010020280100202C0100204D
:100790001004004064000020600000205C00002085
:1007A0004FF0E021096921F004014FF0E0221161CE
:1007B000C21700EB5272D2101F4B1A7019460978FB
:1007C0004FF47A7251431D4A1180704701461A4A0C
:1007D00012784A434FF0E0235A6100229A610122C5
:1007E0001A6100BF4FF0E022106910F0010F02D033
:1007F00010F4803FF6D000224FF0E0231A619A6196
:10080000704701460D4A12884A434FF0E0235A616F
:1008100000229A6101221A6100BF4FF0E0221069A4
:1008200010F0010F02D010F4803FF6D000224FF0FC
:10083000E0231A619A617047280000202A000020F6
:10084000AC4A0A400243AC4B1A607047014607238A
:1008500023EA01021202A84B1B1D18684FF6FF0382
:100860001840A64B18431043A34B1B1D186070473C
:100870002DE9F0478046894614461D462046E1177B
:1008800004EB91714FEAA10AE11704EB9171891011
:10089000A4EB8101CFB2042000EBC700C7B2284609
:1008A000FFF7D4FFC5F1040008FA00F60F20284135
:1008B00000EA0900064306F00F06202C0CDA9048E7
:1008C00000684FF0010101FA04F140EA01004FF025
:1008D000E021C1F800010DE08A480068A4F1200180
:1008E0004FF0010202FA01F240EA02004FF0E0216B
:1008F000C1F80401844850F82A0006FA07F140EADA
:100900000100814941F82A00BDE8F08770B504462E
:100910000B46CE1701EB9676B010CE1701EB96760C
:10092000B610A1EB8606B606350E784B9B6943F0F0
:100930000103764EB3614FEAB63353F820300F26E9
:10094000AE40B343724E46F82030334653F8203061
:1009500004FA05F633436E4E46F820306D4B1E68A0
:1009600001238B401E436B4B1E6012F0010F08D019
:10097000684B0C331B6801268E403343654E0C36A2
:10098000336012F0020F08D0624B08331B68012657
:100990008E4033435F4E0836336070BD00B5002093
:1009A0005A490861C8601420486100208861C86104
:1009B0000846006840F00100086008464068564953
:1009C00008405249486008460068544908404F4969
:1009D00008600846006820F48020086008464068E7
:1009E00020F4FE0048600020886000214FF0006085
:1009F000FFF726FF00BD10B53F480830006840F003
:100A000004003D49083108604048C06940F080500A
:100A10003E49C8614248406840F48070404948609F
:100A20000846006840F0040008600846006840F08E
:100A300002000860FFF7BAFB10BD3048001D2E49C8
:100A4000091D0860704701464906304A926942F024
:100A500001022E4B9A612E4A083A526822F0E06257
:100A60002B4B083B5A601A4652680A435A6070473B
:100A700030B504460025FFF791FF2448006840F494
:100A800080302249086000BF20480068400CFBD03D
:100A90004FF480601D494860A01EC4B208464068FB
:100AA00040EA844048600846406840F4803048602E
:100AB0001C48006840F032001A490860134800687A
:100AC00040F080701149086000BF10480068400E77
:100AD000FBD00E48406840F002000C49486005E039
:100AE0000A484068C0F3870505F00305022DF7D1D9
:100AF00030BD000080FFFF1F08ED00E00000FA0598
:100B000000E100E004E100E000E400E00010024049
:100B100008000140000401400000FFF8FFFFF6FE5E
:100B20000070004000200240014600BF704700BF37
:100B3000494A128812F0400FFAD0C2B2464B1B1D30
:100B40001A8070472DE9F05F05460E46300100F02F
:100B5000B9FD8146414905FB01F000F0B3FD824635
:100B6000494600F0B1FC0746384600F08BFD84B2E0
:100B7000204600F0A7FD8346394600F0BEFE8246BF
:100B80004FF0834100F0E6FD814600F07BFD80469A
:100B9000240104EB080084B23148806940F004006D
:100BA0002F4988610846806940F4804088612D485B
:100BB000006820F47F602B4908600846006840F414
:100BC0000B6008602648C06840F480402449C86033
:100BD0000846C06820F48040C8601F480830048080
:100BE000001D008842F20C0108431B490C310880AB
:100BF000BDE8F09F1849091D088000BF1649098803
:100C000011F0400FFAD07047014608460AE010F88C
:100C1000012B114B1B1D1A8000BF0F4A128812F0C6
:100C2000400FFAD00278002AF1D1704710B504467F
:100C30000B46402B00DD40230D20FFF7DBFF002299
:100C400004E0A05CFFF7D6FF501CC2B29A42F8DB6A
:100C50000D20FFF7CFFF10BD0038014040420F00CC
:100C6000001002400408014010B5B348806940F00C
:100C70000400B1498861B148006820F0F000AF4934
:100C800008600846006840F03000086008460068C8
:100C900020F4706008600846006840F44070086006
:100CA00000F081F9A648008820F04000A44908809F
:100CB0000846008820F0020008800846008820F0DE
:100CC000010008800846008840F0400008800120AC
:100CD00000F0BAF900209B4908604FF001009A49E2
:100CE000C1F8840110BD2DE9F04107460D461646B6
:100CF000002096490860384600F034F98046002408
:100D000005E0FF2000F02EF92855601CC4B2B44263
:100D1000F7DB01208D4908604046BDE8F0812DE9F0
:100D2000F04107460C4615460020884908603846C1
:100D300000F018F98046002605E014F8010B00F0D9
:100D400011F9701CC6B2AE42F7DB01207F49086082
:100D50004046BDE8F0811CB57DA103C9CDE9000185
:100D6000012000F071F9052269463020FFF7D7FF16
:100D7000052269461020FFF7B6FF002406E01DF8A3
:100D80000400A52800D003E0601CC4B2052CF6DBEB
:100D900000BF052C01D001201CBD0020FCE770B570
:100DA00005460C46002069490860284600F0DAF83C
:100DB0000646204600F0D6F801206349C1F88401B8
:100DC000304670BD70B5044600206049086020467A
:100DD00000F0C8F8FF2000F0C5F8054601205A4988
:100DE000C1F88401284670BD70B50546012000F0A9
:100DF0002BF90020534908604FF0200229464FF09C
:100E0000A000FFF78CFF01204F49C1F8880100BF07
:100E1000514800680028FBD14FF00700FFF7D2FFD0
:100E2000044621462720FFF7BAFF14F0100F05D023
:100E3000FF21E120FFF7B3FF102070BD14F0200F59
:100E400001D02020F9E7FF20F7E770B5044607201E
:100E5000FFF7B8FF05460920FFF7B4FF064629460D
:100E60002720FFF79CFF15F0400F0ED06020FFF702
:100E7000A9FF0646202221466120FFF734FFFF210B
:100E8000E220FFF78CFF002070BD0120FCE710B5C9
:100E900000202C4908604FF0050230494FF02A002D
:100EA000FFF73DFF00212120FFF779FF01212220DC
:100EB000FFF775FF28212520FFF771FF1221312050
:100EC000FFF76DFF07212620FFF769FF0F21202084
:100ED000FFF765FF01201C49C1F8880110BD10B55E
:100EE0000020184908604FF005021D494FF03000FE
:100EF000FFF715FF052219492A20FFF710FF0021EF
:100F00002120FFF74CFF00212220FFF748FF00219E
:100F10002420FFF744FF28212520FFF740FF0F2161
:100F20002620FFF73CFF0E212020FFF738FF01208D
:100F30000549C1F8880110BD0010024000080140B9
:100F400000300140880121420000214284012142F9
:100F5000A5A5A5A5A500000014012242FF190008BF
:100F6000FA1900080246002105E0481CC1B2C82950
:100F700001DD002070474A48008910F0020FF4D0CC
:100F800047488281002105E0481CC1B2C82901DD23
:100F90000020EFE74248008910F0010FF4D04048EC
:100FA0008089C0B2E6E700B53E48806940F00400A1
:100FB0003C4988610846806940F4805088613A481D
:100FC0000068C0F3130038490860084600683749D4
:100FD00008433549086034480C30006840F0E000B0
:100FE00031490C3108602E4800882D490880084698
:100FF000008840F4007008800846008840F4807043
:1010000008800846008840F00400088008460088F0
:1010100008800846008840F00200088008460088E2
:1010200040F0010008800846008840F01800088061
:101030000846008808800846008840F04000088084
:10104000FF20FFF78FFF00BD154909884FF6C772D3
:101050001140134A118018B911460988118017E010
:10106000012806D10E49098841F010010C4A11806F
:101070000EE0022806D10A49098841F01801084A01
:10108000118005E00649098841F03801044A1180C1
:101090000349098841F04001014A1180704700006E
:1010A0000030014000100240000801400000B0BBC9
:1010B00001200E490860704704200C490860704701
:1010C00008200A49086070471020084908607047E6
:1010D00010B5012204210620FFF718FC02230A2282
:1010E00019461846FFF7C4FB10BD00001404014068
:1010F000704770477047704770470000004870475E
:10110000B40300207546FFF7F9FFAE4605006946B7
:10111000534620F00700854618B020B5FFF758F871
:10112000BDE820404FF000064FF000074FF00008E8
:101130004FF0000B21F00701AC46ACE8C009ACE869
:10114000C009ACE8C009ACE8C0098D467047044648
:10115000AFF300802046FFF722F8000000487047F8
:10116000B80300204FEA41034FEA5353A3F58063CD
:10117000D3F11E03C8BFD3F1210C0CDD4FF00042A8
:1011800042EAC12242EA505232FA03FC8CEAE17C84
:10119000ACEBE1707047102BC4BF0020704703F523
:1011A000787CBCF1FF3F04D06FF0004282EA21005E
:1011B000704770B500F0C6F849922480002070474F
:1011C000F2E710F0004248BF4042B0FA80F310FA54
:1011D00003F10AD0C3F11D0303F580634FEA4150C8
:1011E00002EB035202EBD12170474FF00000704731
:1011F000DFF848C170B51CEA111E1EBF1CEA1315AA
:101200009EEA0C0F95EA0C0F00F06F8081EA030450
:1012100023EA4C134EEAD47E21EA4C1141F48011AA
:1012200043F48013AE44A1FB024CA0FB0365AEF176
:101230007F7E361955EB0C05A1FB034C4CF10003E6
:10124000A0FB021C16EB0C06654153F1000309429A
:1012500018BF46F0010613F4007F0BD14FEA0331AB
:101260004FEA0530340341EA155140EA16506FF059
:1012700003020AE04FEAC3214FEAC520F40241EA23
:10128000555140EA56506FF0020202EB2E4201EB3C
:10129000025585EACE710AD05FEA440C18BF24F0EB
:1012A000004450F1000041F1000120EAD47040F206
:1012B000FE7C624500D270BDA84214BF4FF080444E
:1012C0004FF04044002E08BF0024BEF1806FA8BF3D
:1012D000A1F1C041BDE8704080F282804FF0000073
:1012E00001F1C04101F0004170479EEA0C0F0CEA89
:1012F000131518BF95EA0C0F06D04FF0000081EAD5
:10130000030E0EF0004170BD00F01CF88900013E94
:1013100000F007B800F009B84FEA430C5FEA5C5CE4
:1013200008D081EA030100F05BB84FEA410C5FEAA4
:101330005C5CF6D14FF00000014970470000FF07E8
:101340000000F87F0EF1020E2EF0030E5EF8046B23
:10135000364205D4012A43EB030515F5001F12D8C8
:10136000012841EB010C1CF5001F0CD80ED14FEAEF
:10137000D17C15F5001F0CEB4C0C0CF1020C08BFD6
:101380004CEBD37C04E04FF0080C01E04FEAD37C37
:101390000CEB4C0526FA05F606F00706B6F1040C30
:1013A00006D20EEB860CBDE870404CF0010C604795
:1013B000DFE80CF0090B02024FF000414FF0000093
:1013C000A1F5002170BD19461046012851EB01041A
:1013D00018BFD4F5001484BF002001F0004170BD97
:1013E0000808A0F500114FEA3101704790EA010F9B
:1013F00048BF81F0004100F19282421A3CBF801A3E
:1014000089184FEAD0524FF07F4C1CEA410FA2EBF3
:10141000D15318BF9CEA026F00F03B804FF0004CA4
:101420004CEA00204CEA012121FA03FC10EB0C0CE1
:101430001ED202F1FF325FEA1C2040EBC25038BFDF
:1014400070471CF07F0F4FEA400C18BFBCF17F4F74
:1014500038BF7047C3F12003994008BF20F0010056
:10146000BCF17F4F38BF7047A0F1C04000F040BAD8
:101470004FEA3C00000A40EBC25028BF1CF0FF0FAF
:101480004FEA400CE6D018BFBCF17F4F38BF704721
:10149000EAE79CEA026F05D010EA5C0F08BF00F093
:1014A0000040704710B500F0D6F900BF64FBBE3EA7
:1014B000401058BFC0F14040491058BFC1F14041F1
:1014C0008142EFF3008070474FF47F0C1CEAD0128A
:1014D0001EBF1CEAD11392EA0C0F93EA0C0F00F026
:1014E000858090EA010F48BF42F4807240F4000CFE
:1014F00041F400002CF07F4120F07F4000B5814294
:10150000A2EB03020FF2081CACEB504EC0F100003E
:101510009EF800E04FEA4E0E00FB0EFC38BF49007B
:101520004FEA2C1C02F5FA020CFB0EF34FEACE1E1A
:101530004FEA112C4FEAC1210EEB635E42EB2242CF
:101540000EFB0CFC4FEA1C5300FB03114FEA112C5D
:101550004FEA01310EFB0CFC4FEADC4C00FB0C1196
:10156000C14228BF09184CEB03335DF804EB10EBC4
:10157000410143EBC250B2F57C0F38BF704729D50B
:1015800012F0F00F1CBF00F1C04000F000407047A7
:10159000008182838485868788898B8C8D8E8F914C
:1015A0009293959697999A9C9D9FA0A2A3A5A7A870
:1015B000AAACAEB0B2B3B5B7B9BCBEC0C2C5C7C99C
:1015C000CCCED1D4D7D9DCDFE2E6E9ECF0F3F7FA00
:1015D000FE0000004FEA400C0CF1807CBCF17E4F15
:1015E00028BF7047B0F1C04000F082B990EA010F07
:1015F0000CEAD11348BF42F48072624538BF63459C
:1016000007D213F47F0F16D080EA010000F00040EB
:10161000704710B500F01FF9097EFC3E00F005B8D8
:1016200080EA010000F00040704780EA010000F00D
:10163000004000F05DB912F47F0F04BF024870470C
:1016400080EA010000F054B90000C07F41000B0E99
:10165000D3F19E0208D950F400034FEA032323FA82
:1016600002F048BF4042704710B500F0F4F800BFE8
:1016700049922480002070476FF0004282EA2000E7
:1016800070470000C10DD1F19E0206DB4FEA002336
:1016900043F0004323FA02F07047004207D54FEAB7
:1016A0004001B1F1FE4F02D24FF00000704710B57B
:1016B00000F0D1F849922480002070476FEA2000A2
:1016C00070470000B0FA80F310FA03F2C3F19D03F3
:1016D0000AD0D90501EB1220530638BF704700F13C
:1016E000010008BF20F001007047000050EA010C23
:1016F00000F113801CF5000F58BFBCF5000F01D49A
:101700008842704707D710F5000F58BF11F5000F3A
:1017100015D488427047894270471CF5000F04D5E4
:10172000BCF5000FF7D5814270474FF0807C1CEB71
:10173000400F38BF1CEB410F01D28142704710B5FA
:1017400000F089F8922449004FF000504FF080518A
:10175000FFF7AEBE4FF47F0C1CEAD0121EBF1CEA8E
:10176000D11392EA0C0F93EA0C0F00F0478090EA35
:10177000010F48BF42F480724FF0004C4CEA002049
:101780004CEA012102EB0302A0FB0113A2F50002C7
:10179000002918BF43F001035B0028BF4FEA330361
:1017A00042EB22425FEA132C4CEBC2502EBFBCEB43
:1017B000436FB2F57C0F70474FEA036CBCF1004FEA
:1017C00008BF20F00100B2F57C0F38BF70470BD581
:1017D00082F0FF0212F5803FC8BF704700F1C040A1
:1017E000D8BF00F00040704700F5000C5FEA4C0CD9
:1017F00048BF7047B0F1C04000F07AB890EA010FDE
:101800000CEAD11348BF42F48072624538BF634589
:1018100004D280EA010000F00040704710B500F0EB
:101820001AF800BF8900013E00F007B800F009B8BF
:101830005FEA410C5FEA1C6C08D080EA010000F00E
:1018400057B85FEA400C5FEA1C6CF6D14FF00040DD
:10185000A0F5800070470EF1020E2EF0030E5EF828
:10186000044B244204D44FEA4102B2F17F4F11D815
:101870004FEA4003B3F17F4F0CD80ED14FEAD07C32
:10188000B2F17F4F0CEB4C0C0CF1020C08BF4CEB8F
:10189000D17C04E04FF0080C01E04FEAD17C0CEB66
:1018A0004C0324FA03F404F00704B4F1040C06D248
:1018B0000EEB840CBDE810404CF0010C6047DFE8F3
:1018C0000CF0070802024FF00040A0F5800010BDA8
:1018D0000846420018BFD2F1807288BF00F0004075
:1018E00010BD10B5FFF73AFC4FF00001016010BDCC
:1018F000FF2141EAD050C005704780F0004090EAD7
:10190000010F7FF57AAD81F0004100F008B80000CA
:1019100090EA010F48BF81F000413FF56EAD421AD9
:1019200004D882F00042A0EB020011444FEAD052EA
:101930004FF07F4C1CEA410FA2EBD15318BF9CEA39
:10194000026F4AD04FF0004C4CEA00204CEA0121D3
:1019500021FA03FCB0EB0C0C0FD412F0FE0F36D0C2
:101960005FEA4C001DD5001240EBC25038BF7047F3
:101970001CF03F0F18BF70470BE0A2F101025FEAB5
:101980001C2040EBC25038BF70471CF07F0F18BFBF
:101990007047C3F12003994014BF401E20F001009E
:1019A000704780084FEA122308BF7047B0FA80FCE6
:1019B000A2EB0C02CCF1280C60FA0CF093EA122F87
:1019C00004BF00EBC25070474FEAC3707047130A60
:1019D0005FEADC1008BF7047F6E79CEA026F04D0AC
:1019E00010EA5C0F08BF0020704710B5FFF733FF07
:1019F00040DFF63E81F00040704734431010013460
:101A000043101001241A00080000002030010000DB
:101A100028010008441A000830010020E80B0000EB
:101A200064010008820A067805050505050551A62A
:101A30009B443C02121E97A040F628444005350AFC
:041A4000D7A33A00EE
:04000005080000ED02
:00000001FF
