:020000040800F2
:10000000180D0020B9010008BD010008BF0100085B
:10001000C1010008C3010008C5010008000000007C
:10002000000000000000000000000000C701000800
:10003000C901000800000000CB010008CD01000844
:10004000CF010008CF010008CF010008CF01000850
:10005000CF010008CF010008890F0008CF01000878
:10006000910F0008990F0008A10F0008CF010008A8
:10007000CF010008CF010008CF010008CF01000820
:10008000CF010008CF010008CF010008CF01000810
:10009000CF010008CF010008CF010008CF01000800
:1000A000CF010008CF010008CF010008CF010008F0
:1000B000CF010008DB050008CF010008CF010008D0
:1000C000CF010008CF010008CF010008CF010008D0
:1000D000CF010008CF010008CF010008CF010008C0
:1000E000CF010008CF010008CF01000800F002F89E
:1000F00000F04CF80AA090E8000C82448344AAF176
:100100000107DA4501D100F041F8AFF2090EBAE873
:100110000F0013F0010F18BFFB1A43F0010318473B
:1001200034150000541500000A4410F8014B14F077
:100130000F0508BF10F8015B240908BF10F8014B38
:100140006D1E05D010F8013B6D1E01F8013BF9D181
:10015000641E03D0641E01F8015BFBD19142E4D31D
:10016000704700000023002400250026103A28BF15
:1001700078C1FBD8520728BF30C148BF0B60704719
:100180001FB501F0D6F91FBD10B510BD00F026FF58
:100190001146FFF7F5FF00F031F900F044FF03B41A
:1001A000FFF7F2FF03BC00F015FC000030BF72B691
:1001B00062B680F30888704708480047FEE7FEE70C
:1001C000FEE7FEE7FEE7FEE7FEE7FEE7FEE7FEE707
:1001D00003480449044A054B70470000ED0000083D
:1001E00018040020180D0020180500201805002014
:1001F00070B58EB0002400260025AA222146641C7A
:1002000001A842542146641C425402222146641C27
:10021000425400222146641C4254FD488279214602
:10022000641C01A84254FA48C2792146641C01A802
:100230004254F748027A2146641C01A84254F4480B
:10024000427A2146601CC4B201A84254F048827A26
:100250002146601CC4B201A84254ED48C27A20462F
:10026000611CCCB201A90A54E948027B2046611CFA
:10027000CCB201A90A54E648427B2046611CCCB2AC
:1002800001A90A54E248827B2046611CCCB201A934
:100290000A54DF48C27B2046611CCCB201A90A5433
:1002A000DB48027C2046611CCCB201A90A54D84824
:1002B000427C2146601CC4B201A842540022204660
:1002C000611CCCB201A90A542146601CC4B201A829
:1002D00042542046611CCCB201A90A542046611C3C
:1002E000CCB201A90A542046611CCCB201A90A541F
:1002F0002046611CCCB201A90A54201FC0B28DF85F
:10030000070000BF05E001A8405D3044C6B2681C8C
:10031000C5B2A542F7DB2046611CCCB201A90E5440
:10032000002505E001A9485D00F0BAFB681CC5B2D4
:10033000A542F7DB0EB070BD2DE9F04F8DB08046C1
:10034000894692469B46169F002500240026AA2235
:100350002146641C0DF801202146641C0DF8012083
:1003600001222146641C0DF8012000222146641C54
:100370000DF80120A64802782146641C0DF80120E2
:1003800042782146641C0DF8012082782146641CC5
:100390000DF80120C2782046611CCCB20DF8002077
:1003A0009B4802792046611CCCB20DF80020984889
:1003B00042792046611CCCB20DF80020201FC0B24B
:1003C0008DF8030000BF05E01DF805003044C6B2FB
:1003D000681CC5B2A542F7DB2046611CCCB20DF803
:1003E0000060002505E01DF8050000F059FB681CC1
:1003F000C5B2A542F7DB0DB0BDE8F08F08B5092006
:1004000000F08CFA482000F021F94FF4E131482047
:1004100000F0EEFA00F07EFB00BF00F0F2FB0028D7
:10042000FBD100F093FC052000F041F9052000F01D
:100430001FFC78490870372000F039F914E074483F
:1004400000F059FC744908700846007860B9002033
:10045000034600907148026871480168714800685D
:10046000FFF76AFFFFF7C4FEE9E770B56E49086859
:10047000002100F063FF1CD201206C4908706A481B
:10048000006880F000456A49284600F045FE0446B1
:1004900000F020FF654948706349086800F0FEFEDF
:1004A0004042FF2190FBF1F201FB12005F4988708E
:1004B00017E000205D4908705B4908685C4900F05E
:1004C0002BFE044600F006FF58494870564908685C
:1004D00000F0E4FEFF2190FBF1F201FB1200534912
:1004E000887000215348006800F028FF1CD20120CA
:1004F0004E49C8704F48006880F000454C49284676
:1005000000F00AFE044600F0E5FE4849087149483B
:10051000006800F0C3FE4042FF2190FBF1F201FBB6
:1005200012004249487117E000204049C870404914
:100530004048006800F0F0FD044600F0CBFE3B4967
:1005400008713C48006800F0A9FEFF2190FBF1F221
:1005500001FB12003549487137480068FF2190FBC4
:10056000F1F03249887134480068FF2190FBF1F2C4
:1005700001FB12002D49C87130480068FF2190FB33
:10058000F1F02A4908722D480068FF2190FBF1F232
:1005900001FB12002549487229480068FF2190FBA1
:1005A000F1F02249887226480068FF2190FBF1F2A1
:1005B00001FB12001D49C87222480068FF2190FB10
:1005C000F1F01A4908731F480068FF2190FBF1F20F
:1005D00001FB12001549487370BD08B51A48008820
:1005E00010F0010F0CD00020034600900B48026869
:1005F0000B4801680B480068FFF79EFEFFF7F8FD07
:100600001148008820F001000F49088008BD000053
:10061000700100200C0000200A000020640000206F
:10062000600000205C0000209001002050010020AC
:1006300000007F43680000202001002024010020EA
:10064000280100202C010020100400404FF0E02180
:10065000096921F004014FF0E0221161C21700EB9B
:100660005272D2101F4B1A70194609784FF47A72E1
:1006700051431D4A1180704701461A4A12784A4375
:100680004FF0E0235A6100229A6101221A6100BFF3
:100690004FF0E022106910F0010F02D010F4803FFB
:1006A000F6D000224FF0E0231A619A6170470146AC
:1006B0000D4A12884A434FF0E0235A6100229A61A2
:1006C00001221A6100BF4FF0E022106910F0010F03
:1006D00002D010F4803FF6D000224FF0E0231A61E0
:1006E0009A617047280000202A000020AC4A0A4086
:1006F0000243AC4B1A6070470146072323EA01020C
:100700001202A84B1B1D18684FF6FF031840A64B9A
:1007100018431043A34B1B1D186070472DE9F04789
:100720008046894614461D462046E11704EB917128
:100730004FEAA10AE11704EB91718910A4EB810142
:10074000CFB2042000EBC700C7B22846FFF7D4FFA2
:10075000C5F1040008FA00F60F20284100EA09005C
:10076000064306F00F06202C0CDA904800684FF084
:10077000010101FA04F140EA01004FF0E021C1F863
:1007800000010DE08A480068A4F120014FF0010249
:1007900002FA01F240EA02004FF0E021C1F8040140
:1007A000844850F82A0006FA07F140EA010081491E
:1007B00041F82A00BDE8F08770B504460B46CE1715
:1007C00001EB9676B010CE1701EB9676B610A1EB42
:1007D0008606B606350E784B9B6943F00103764ECC
:1007E000B3614FEAB63353F820300F26AE40B3431F
:1007F000724E46F82030334653F8203004FA05F69E
:1008000033436E4E46F820306D4B1E6801238B40FB
:100810001E436B4B1E6012F0010F08D0684B0C3367
:100820001B6801268E403343654E0C36336012F050
:10083000020F08D0624B08331B6801268E403343F9
:100840005F4E0836336070BD00B500205A4908611C
:10085000C8601420486100208861C86108460068AB
:1008600040F0010008600846406856490840524977
:10087000486008460068544908404F4908600846E7
:10088000006820F4802008600846406820F4FE00DC
:1008900048600020886000214FF00060FFF726FFCD
:1008A00000BD10B53F480830006840F004003D49E5
:1008B000083108604048C06940F080503E49C86136
:1008C0004248406840F480704049486008460068EB
:1008D00040F0040008600846006840F0020008602C
:1008E000FFF764FC10BD3048001D2E49091D08604B
:1008F000704701464906304A926942F001022E4B88
:100900009A612E4A083A526822F0E0622B4B083B6B
:100910005A601A4652680A435A60704730B5044616
:100920000025FFF791FF2448006840F480302249F9
:10093000086000BF20480068400CFBD04FF4806086
:100940001D494860A01EC4B20846406840EA844081
:1009500048600846406840F4803048601C480068A1
:1009600040F032001A4908601348006840F0807077
:100970001149086000BF10480068400EFBD00E48C7
:10098000406840F002000C49486005E00A484068B1
:10099000C0F3870505F00305022DF7D130BD000037
:1009A00080FFFF1F08ED00E00000FA0500E100E015
:1009B00004E100E000E400E0001002400800014013
:1009C000000401400000FFF8FFFFF6FE0070004049
:1009D00000200240014600BF704700BF494A12880C
:1009E00012F0400FFAD0C2B2464B1B1D1A8070475E
:1009F0002DE9F05F05460E46300100F08BFC814684
:100A0000414905FB01F000F085FC8246494600F0B3
:100A100083FB0746384600F05DFC84B2204600F0B8
:100A200079FC8346394600F090FD82464FF08341C1
:100A300000F0B8FC814600F04DFC8046240104EB38
:100A4000080084B23148806940F004002F49886171
:100A50000846806940F4804088612D48006820F491
:100A60007F602B4908600846006840F40B6008600E
:100A70002648C06840F480402449C8600846C068E1
:100A800020F48040C8601F4808300480001D0088A2
:100A900042F20C0108431B490C310880BDE8F09F6D
:100AA0001849091D088000BF1649098811F0400F38
:100AB000FAD07047014608460AE010F8012B114BA6
:100AC0001B1D1A8000BF0F4A128812F0400FFAD087
:100AD0000278002AF1D1704710B504460B46402B2E
:100AE00000DD40230D20FFF7DBFF002204E0A05CC7
:100AF000FFF7D6FF501CC2B29A42F8DB0D20FFF779
:100B0000CFFF10BD0038014040420F0000100240EE
:100B10000408014010B5B848806940F00400B649A7
:100B20008861B648006820F0F000B44908600846C3
:100B3000006840F0300008600846006820F47060EB
:100B400008600846006840F44070086000F08DF9C5
:100B5000AB48008820F04000A9490880084600887A
:100B600020F0020008800846008820F0010008807C
:100B70000846008840F040000880012000F0D0F9CD
:100B80000020A04908604FF001009F49C1F884018E
:100B900010BD2DE9F04107460D46164600209B4941
:100BA0000860384600F040F98046002405E0FF2048
:100BB00000F03AF92855601CC4B2B442F7DB0120BA
:100BC000924908604046BDE8F0812DE9F0410746B2
:100BD0000C46154600208D490860384600F024F97F
:100BE0008046002605E014F8010B00F01DF9701C8A
:100BF000C6B2AE42F7DB0120844908604046BDE83A
:100C0000F0811CB582A103C9CDE90001012000F0EB
:100C100087F9052269463020FFF7D7FF052269468C
:100C20001020FFF7B6FF002406E01DF80400A528F9
:100C300000D003E0601CC4B2052CF6DB00BF052C1D
:100C400001D001201CBD0020FCE770B505460C4614
:100C500000206E490860284600F0E6F80646204667
:100C600000F0E2F801206849C1F88401304670BD07
:100C700070B50446002065490860204600F0D4F8AD
:100C8000FF2000F0D1F8054601205F49C1F884013A
:100C9000284670BD70B50546012000F041F90020DE
:100CA000584908604FF0200229464FF0A000FFF796
:100CB0008CFF01205449C1F8880100BF56480068E4
:100CC0000028FBD14FF00700FFF7D2FF0446214672
:100CD0002720FFF7BAFF14F0100F05D0FF21E12005
:100CE000FFF7B3FF102070BD14F0200F01D02020BB
:100CF000F9E7FF20F7E770B5054601204149086094
:100D000000BF4648006810F0010FFAD100203D49AD
:100D100008604FF00700FFF7ABFF0446214627208D
:100D2000FFF793FF14F0400F0ED06020FFF7A0FFF5
:100D30000646202229466120FFF72BFFFF21E220F3
:100D4000FFF783FF002070BD0120FCE710B50020F5
:100D50002C4908604FF0050231494FF02A00FFF797
:100D600034FF00212120FFF770FF01212220FFF72F
:100D70006CFF28212520FFF768FF12213120FFF7A3
:100D800064FF07212620FFF760FF0F212020FFF7D7
:100D90005CFF01201C49C1F8880110BD10B500207E
:100DA000184908604FF005021E494FF03000FFF768
:100DB0000CFF05221A492A20FFF707FF00212120F6
:100DC000FFF743FF00212220FFF73FFF00212420EF
:100DD000FFF73BFF28212520FFF737FF0F212620B3
:100DE000FFF733FF0E212020FFF72FFF01200649D8
:100DF000C1F8880110BD0000001002400008014049
:100E0000003001408801214200002142840121423A
:100E1000A5A5A5A5A50000001401224208080140CF
:100E20004F1600084A1600080246002105E0481C3B
:100E3000C1B2C82901DD002070474F48008910F079
:100E4000020FF4D04C488281002105E0481CC1B259
:100E5000C82901DD0020EFE74748008910F0010FA5
:100E6000F4D045488089C0B2E6E700B543488069C0
:100E700040F00400414988610846806940F4805090
:100E800088613F48006820F00F003D49086008462F
:100E9000006840F00800086008460068C0F31300CE
:100EA00008600846006837490843354908603448F7
:100EB0000C30006840F0E00031490C3108602E48E9
:100EC00000882D4908800846008840F4007008809A
:100ED0000846008840F4807008800846008840F08A
:100EE000040008800846008808800846008840F012
:100EF000020008800846008840F00100088008468B
:100F0000008840F0180008800846008808800846DD
:100F1000008840F040000880FF20FFF785FF00BDFB
:100F2000154909884FF6C7721140134A118018B944
:100F300011460988118017E0012806D10E49098859
:100F400041F010010C4A11800EE0022806D10A4936
:100F5000098841F01801084A118005E0064909880E
:100F600041F03801044A11800349098841F04001E9
:100F7000014A11807047000000300140001002401B
:100F8000000801400000B0BB01200E490860704716
:100F900004200C490860704708200A49086070471F
:100FA000102008490860704710B50122042106206E
:100FB000FFF702FC02230A2219461846FFF7AEFB90
:100FC00010BD00001404014070477047704770471F
:100FD0007047000000487047B40300207546FFF7D3
:100FE000F9FFAE4605006946534620F007008546E6
:100FF00018B020B5FFF7ECF8BDE820404FF0000630
:101000004FF000074FF000084FF0000B21F00701F0
:10101000AC46ACE8C009ACE8C009ACE8C009ACE833
:10102000C0098D4670470446AFF300802046FFF7A5
:10103000B6F8000000487047B803002090EA010F9E
:1010400048BF81F0004100F19282421A3CBF801AF1
:1010500089184FEAD0524FF07F4C1CEA410FA2EBA7
:10106000D15318BF9CEA026F00F03B804FF0004C58
:101070004CEA00204CEA012121FA03FC10EB0C0C95
:101080001ED202F1FF325FEA1C2040EBC25038BF93
:1010900070471CF07F0F4FEA400C18BFBCF17F4F28
:1010A00038BF7047C3F12003994008BF20F001000A
:1010B000BCF17F4F38BF7047A0F1C04000F040BA8C
:1010C0004FEA3C00000A40EBC25028BF1CF0FF0F63
:1010D0004FEA400CE6D018BFBCF17F4F38BF7047D5
:1010E000EAE79CEA026F05D010EA5C0F08BF00F047
:1010F0000040704710B500F0D6F900BF64FBBE3E5B
:10110000401058BFC0F14040491058BFC1F14041A4
:101110008142EFF3008070474FF47F0C1CEAD0123D
:101120001EBF1CEAD11392EA0C0F93EA0C0F00F0D9
:10113000858090EA010F48BF42F4807240F4000CB1
:1011400041F400002CF07F4120F07F4000B5814247
:10115000A2EB03020FF2081CACEB504EC0F10000F2
:101160009EF800E04FEA4E0E00FB0EFC38BF49002F
:101170004FEA2C1C02F5FA020CFB0EF34FEACE1ECE
:101180004FEA112C4FEAC1210EEB635E42EB224283
:101190000EFB0CFC4FEA1C5300FB03114FEA112C11
:1011A0004FEA01310EFB0CFC4FEADC4C00FB0C114A
:1011B000C14228BF09184CEB03335DF804EB10EB78
:1011C000410143EBC250B2F57C0F38BF704729D5BF
:1011D00012F0F00F1CBF00F1C04000F0004070475B
:1011E000008182838485868788898B8C8D8E8F9100
:1011F0009293959697999A9C9D9FA0A2A3A5A7A824
:10120000AAACAEB0B2B3B5B7B9BCBEC0C2C5C7C94F
:10121000CCCED1D4D7D9DCDFE2E6E9ECF0F3F7FAB3
:10122000FE0000004FEA400C0CF1807CBCF17E4FC8
:1012300028BF7047B0F1C04000F082B990EA010FBA
:101240000CEAD11348BF42F48072624538BF63454F
:1012500007D213F47F0F16D080EA010000F000409F
:10126000704710B500F01FF9097EFC3E00F005B88C
:1012700080EA010000F00040704780EA010000F0C1
:10128000004000F05DB912F47F0F04BF02487047C0
:1012900080EA010000F054B90000C07F41000B0E4D
:1012A000D3F19E0208D950F400034FEA032323FA36
:1012B00002F048BF4042704710B500F0F4F800BF9C
:1012C00049922480002070476FF0004282EA20009B
:1012D00070470000C10DD1F19E0206DB4FEA0023EA
:1012E00043F0004323FA02F07047004207D54FEA6B
:1012F0004001B1F1FE4F02D24FF00000704710B52F
:1013000000F0D1F849922480002070476FEA200055
:1013100070470000B0FA80F310FA03F2C3F19D03A6
:101320000AD0D90501EB1220530638BF704700F1EF
:10133000010008BF20F001007047000050EA010CD6
:1013400000F113801CF5000F58BFBCF5000F01D44D
:101350008842704707D710F5000F58BF11F5000FEE
:1013600015D488427047894270471CF5000F04D598
:10137000BCF5000FF7D5814270474FF0807C1CEB25
:10138000400F38BF1CEB410F01D28142704710B5AE
:1013900000F089F8922449004FF000504FF080513E
:1013A000FFF7AEBE4FF47F0C1CEAD0121EBF1CEA42
:1013B000D11392EA0C0F93EA0C0F00F0478090EAE9
:1013C000010F48BF42F480724FF0004C4CEA0020FD
:1013D0004CEA012102EB0302A0FB0113A2F500027B
:1013E000002918BF43F001035B0028BF4FEA330315
:1013F00042EB22425FEA132C4CEBC2502EBFBCEBF7
:10140000436FB2F57C0F70474FEA036CBCF1004F9D
:1014100008BF20F00100B2F57C0F38BF70470BD534
:1014200082F0FF0212F5803FC8BF704700F1C04054
:10143000D8BF00F00040704700F5000C5FEA4C0C8C
:1014400048BF7047B0F1C04000F07AB890EA010F91
:101450000CEAD11348BF42F48072624538BF63453D
:1014600004D280EA010000F00040704710B500F09F
:101470001AF800BF8900013E00F007B800F009B873
:101480005FEA410C5FEA1C6C08D080EA010000F0C2
:1014900057B85FEA400C5FEA1C6CF6D14FF0004091
:1014A000A0F5800070470EF1020E2EF0030E5EF8DC
:1014B000044B244204D44FEA4102B2F17F4F11D8C9
:1014C0004FEA4003B3F17F4F0CD80ED14FEAD07CE6
:1014D000B2F17F4F0CEB4C0C0CF1020C08BF4CEB43
:1014E000D17C04E04FF0080C01E04FEAD17C0CEB1A
:1014F0004C0324FA03F404F00704B4F1040C06D2FC
:101500000EEB840CBDE810404CF0010C6047DFE8A6
:101510000CF0070802024FF00040A0F5800010BD5B
:101520000846420018BFD2F1807288BF00F0004028
:1015300010BD10B5FFF77EFD4FF00001016010BD3A
:10154000FF2141EAD050C005704780F0004090EA8A
:10155000010F7FF57AAD81F0004100F008B800007E
:1015600090EA010F48BF81F000413FF56EAD421A8D
:1015700004D882F00042A0EB020011444FEAD0529E
:101580004FF07F4C1CEA410FA2EBD15318BF9CEAED
:10159000026F4AD04FF0004C4CEA00204CEA012187
:1015A00021FA03FCB0EB0C0C0FD412F0FE0F36D076
:1015B0005FEA4C001DD5001240EBC25038BF7047A7
:1015C0001CF03F0F18BF70470BE0A2F101025FEA69
:1015D0001C2040EBC25038BF70471CF07F0F18BF73
:1015E0007047C3F12003994014BF401E20F0010052
:1015F000704780084FEA122308BF7047B0FA80FC9A
:10160000A2EB0C02CCF1280C60FA0CF093EA122F3A
:1016100004BF00EBC25070474FEAC3707047130A13
:101620005FEADC1008BF7047F6E79CEA026F04D05F
:1016300010EA5C0F08BF0020704710B5FFF733FFBA
:1016400040DFF63E81F00040704734431010013413
:101650004310100174160008000000203001000043
:10166000280100089416000830010020E80B000053
:1016700064010008820A067805050505050551A6DE
:101680009B443C02121E97A040F628444005350AB0
:04169000D7A33A00A2
:04000005080000ED02
:00000001FF
